:100000000C945B000C9483000C9483000C9483008C
:100010000C9483000C9483000C9483000C94830054
:100020000C9483000C9483000C9483000C94830044
:100030000C9483000C9483000C9483000C94830034
:100040000C940F010C9483000C94C3040C94830053
:100050000C9483000C9483000C9483000C94830014
:100060000C9483000C948300000024272A000025B0
:10007000282B000023262904040404040404040299
:100080000202020202030303030303010204081035
:100090002040800102040810200102040810200002
:1000A0000000070002010000030406000000000039
:1000B00000000000A10211241FBECFEFD4E0DEBF7C
:1000C000CDBF11E0A0E0B1E0E8EDFAE002C005909C
:1000D0000D92A830B107D9F711E0A8E0B1E001C056
:1000E0001D92A639B107E1F710E0C6EBD0E004C0DD
:1000F0002297FE010E946605C43BD107C9F70E9402
:1001000008010C946A050C94000080910001909104
:1001100001010895AB01BC0180E191E00E94BC03A4
:100120000895AB01BC0180E191E00E9406040895AE
:10013000BC0180E191E00E9419040895682F80E1DC
:1001400091E00E94F9020895BC0180E191E00E94D3
:1001500009030895AB01BC0180E191E00E94DF0337
:100160000895BC0180E191E00E9411040895BC0152
:1001700080E191E00E94CA020895682F80E191E039
:100180000E94C202089580E191E00E94AC020895AD
:1001900080E191E00E94AF02089580E191E00E9429
:1001A000B20220E030E0882311F021E030E0C90104
:1001B000089560E0809100010E940A020E94CD0033
:1001C000892BC1F061E0809100010E940A0268EE73
:1001D00073E080E090E00E947A0160E0809100018D
:1001E0000E940A0268EE73E080E090E00E947A01CB
:1001F0000E94C800089561E08CE00E94EC0140E894
:1002000055E260E070E080E191E00E94B50208955F
:100210000E94B2010E94FB000E94D900FDCF1F92F4
:100220000F920FB60F9211242F938F939F93AF933A
:10023000BF938091080190910901A0910A01B091AA
:100240000B018050904CAF4FBF4F809308019093AB
:100250000901A0930A01B0930B0127C08091080106
:1002600090910901A0910A01B0910B0180589E4321
:10027000A040B0408093080190930901A0930A0127
:10028000B0930B0180910C0190910D01A0910E0192
:10029000B0910F010196A11DB11D80930C019093A7
:1002A0000D01A0930E01B0930F0180910801909170
:1002B0000901A0910A01B0910B0181589E43A04011
:1002C000B04060F6BF91AF919F918F912F910F90A9
:1002D0000FBE0F901F9018958FB7F89420910C01C6
:1002E00030910D0140910E0150910F018FBFB90166
:1002F000CA010895EF92FF920F931F937B018C0127
:100300008FB7F89440910C0150910D0160910E014E
:1003100070910F018FBF2FB7F89480910C019091CD
:100320000D01A0910E01B0910F012FBF841B950B01
:10033000A60BB70B8E159F05A007B10760F31F91A1
:100340000F91FF90EF900895019759F0FC01EE0F87
:10035000FF1FEE0FFF1F32978FB7F8943197F1F719
:100360008FBF0895789484B5826084BD84B5816020
:1003700084BD85B5826085BD85B5816085BDEEE6AD
:10038000F0E0808181608083E1E8F0E0808182603C
:100390008083808181608083E0E8F0E080818160FB
:1003A0008083E1EBF0E0808184608083E0EBF0E02B
:1003B000808181608083EAE7F0E0808184608083CF
:1003C0008081826080838081816080838081806879
:1003D00080831092C1000895282F30E0C90185570D
:1003E0009F4FFC01949129583F4FF9018491882334
:1003F00081F0E82FF0E0E859FF4FE491F0E0662348
:1004000029F4808190958923808308958081892BA8
:1004100080830895482F50E0CA0181569F4FFC0108
:100420002491CA0185579F4FFC01949149585F4F11
:10043000FA0134913323C1F1222331F1233021F425
:10044000809180008F7705C0243031F48091800046
:100450008F7D8093800018C0213019F484B58F7788
:1004600004C0223021F484B58F7D84BD0DC02630B8
:1004700021F48091B0008F7705C0273029F4809156
:10048000B0008F7D8093B000E32FF0E0E359FF4F81
:10049000E491F0E0662329F480819095892380839C
:1004A00008958081892B80830895482F50E0CA01E8
:1004B00081569F4FFC012491CA0185579F4FFC0133
:1004C000949149585F4FFA013491332319F420E095
:1004D00030E035C0222331F1233021F480918000B7
:1004E0008F7705C0243031F4809180008F7D809318
:1004F000800018C0213019F484B58F7704C02230F1
:1005000021F484B58F7D84BD0DC0263021F4809107
:10051000B0008F7705C0273029F48091B0008F7D1F
:100520008093B000E32FF0E0EE58FF4FE491F0E04D
:10053000808120E030E0892311F021E030E0C90122
:10054000089586E091E09093110180931001089541
:10055000862F0E94820408950E94BA0408950E9482
:100560009B0408950E948A040895CB01BA010E9459
:1005700049040895DC01ED91FC910190F081E02D9A
:1005800009950895DC01ED91FC910190F081E02D39
:10059000099508950F931F93CF93DF938C01EB017F
:1005A00009C02196D801ED91FC910190F081E02DD8
:1005B000C801099568816623A1F7DF91CF911F914A
:1005C0000F9108950F931F938C01DC01ED91FC9125
:1005D0000190F081E02D6DE00995D801ED91FC913D
:1005E0000190F081E02D6AE0C80109951F910F91FB
:1005F00008950F931F938C01DC01ED91FC91019004
:10060000F081E02D0995C8010E94E2021F910F912F
:1006100008950F931F938C010E94CA02C8010E9483
:10062000E2021F910F9108950F931F938C01DC013B
:10063000ED91FC910190F081E02D0995C8010E9497
:10064000E2021F910F9108952F923F924F925F9275
:100650006F927F928F929F92AF92BF92CF92DF92D2
:10066000EF92FF920F931F93DF93CF93CDB7DEB737
:10067000A0970FB6F894DEBF0FBECDBF1C016A0174
:100680007B01411551056105710549F4DC01ED91CE
:10069000FC910190F081E02D60E3099554C088241D
:1006A00099245401422E55246624772401E010E059
:1006B0000C0F1D1F080D191DC701B601A3019201E2
:1006C0000E941305F80160830894811C911CA11CF1
:1006D000B11CC701B601A30192010E941305C90113
:1006E000DA016C017D01C114D104E104F104F1F6D9
:1006F00081E0E82EF12CEC0EFD1EE80CF91C3E0109
:100700000894611C711CD501C4010197A109B109AC
:100710006C01C818D90814C0F601EE0DFF1D6081E8
:100720006A3010F4605D01C0695CD101ED91FC910B
:100730000190F081E02DC10109950894E108F108CC
:100740006E147F0449F7A0960FB6F894DEBF0FBE73
:10075000CDBFCF91DF911F910F91FF90EF90DF9070
:10076000CF90BF90AF909F908F907F906F905F9051
:100770004F903F902F9008952AE00E9424030895FF
:100780000F931F938C010E94BC03C8010E94E202D8
:100790001F910F910895AB0160E070E00E94BC03CF
:1007A00008950F931F938C01AB0160E070E00E94ED
:1007B000BC03C8010E94E2021F910F910895EF92BD
:1007C000FF920F931F93CF93DF93EC017A018B017C
:1007D00077FF0FC0E881F9810190F081E02D6DE293
:1007E000099510950095F094E094E11CF11C011D11
:1007F000111D2AE0B801A701CE010E942403DF9158
:10080000CF911F910F91FF90EF9008950F931F9339
:100810008C010E94DF03C8010E94E2021F910F9128
:100820000895AB01662757FD6095762F0E94DF0380
:1008300008950F931F938C01AB01662757FD6095B8
:10084000762F0E94DF03C8010E94E2021F910F91E0
:100850000895DC012115310541F4ED91FC910190E1
:10086000F081E02D642F099508952A30310519F49F
:100870000E94DF0308950E94240308950F931F939D
:100880008C010E942904C8010E94E2021F910F916D
:100890000895EF92FF920F931F937B018C0122E04A
:1008A00030E040E050E00E943505205C3D4B404F79
:1008B0005F4FCA01B901A80197010E943505C9011E
:1008C000DA010197A109B109292F3A2F4B2F55279A
:1008D00047FD5A950196A11DB11D2093C500815079
:1008E0008093C400E1ECF0E08081806180838081AE
:1008F000886080838081806880831F910F91FF9042
:10090000EF900895982F8091C00085FFFCCF9093C1
:10091000C6000895809112019091130180589F4F55
:100920002091140130911501821B930B60E870E057
:100930000E94000508954091140150911501809185
:100940001201909113018417950719F42FEF3FEFCF
:100950000FC0FA01EA5EFE4F2081CA01019660E8ED
:1009600070E00E940005909315018093140130E01F
:10097000C90108958091140190911501909313017C
:100980008093120108951F920F920FB60F921124B7
:100990002F933F934F935F936F937F938F939F9387
:1009A000AF93BF93EF93FF934091C600E091120184
:1009B000F0911301CF01019660E870E00E940005FC
:1009C0009C0180911401909115012817390739F085
:1009D000EA5EFE4F40833093130120931201FF9192
:1009E000EF91BF91AF919F918F917F916F915F91A7
:1009F0004F913F912F910F900FBE0F901F90189520
:100A000097FB092E07260AD077FD04D049D006D0DF
:100A100000201AF4709561957F4F0895F6F7909530
:100A200081959F4F0895A1E21A2EAA1BBB1BFD01C1
:100A30000DC0AA1FBB1FEE1FFF1FA217B307E407BD
:100A4000F50720F0A21BB30BE40BF50B661F771F15
:100A5000881F991F1A9469F76095709580959095F5
:100A60009B01AC01BD01CF01089597FB092E05261E
:100A70000ED057FD04D0D7DF0AD0001C38F45095B3
:100A80004095309521953F4F4F4F5F4F0895F6F7B2
:100A900090958095709561957F4F8F4F9F4F0895EA
:100AA000AA1BBB1B51E107C0AA1FBB1FA617B70794
:100AB00010F0A61BB70B881F991F5A95A9F78095B0
:100AC0009095BC01CD010895EE0FFF1F0590F491A4
:080AD000E02D0994F894FFCF1A
:080AD8000C0000000000A80260
:00000001FF
