:100000000C945B000C9483000C9483000C9483008C
:100010000C9483000C9483000C9483000C94830054
:100020000C9483000C9483000C9483000C94830044
:100030000C9483000C9483000C9483000C94830034
:100040000C94FE000C9483000C9427050C94830000
:100050000C9483000C9483000C9483000C94830014
:100060000C9483000C948300000024272A000025B0
:10007000282B000023262904040404040404040299
:100080000202020202030303030303010204081035
:100090002040800102040810200102040810200002
:1000A0000000070002010000030406000000000039
:1000B00000000000050311241FBECFEFD4E0DEBF17
:1000C000CDBF11E0A0E0B1E0E0EAFBE002C00590A6
:1000D0000D92AA30B107D9F711E0AAE0B1E001C052
:1000E0001D92A839B107E1F710E0C6EBD0E004C0DB
:1000F0002297FE010E94CA05C43BD107C9F70E949E
:10010000F7000C94CE050C940000809100019091B2
:1001100001010895AB01BC0182E191E00E9420043D
:100120000895AB01BC0182E191E00E946A04089548
:10013000BC0182E191E00E947D040895682F82E174
:1001400091E00E945D030895BC0182E191E00E946C
:100150006D030895AB01BC0182E191E00E9443046C
:100160000895BC0182E191E00E9475040895BC01EC
:1001700082E191E00E942E030895682F82E191E0D0
:100180000E942603089582E191E00E9410030895E1
:1001900082E191E00E941303089582E191E00E94C0
:1001A000160320E030E0882311F021E030E0C9019F
:1001B00008950E94CD00892B41F0809100010E949A
:1001C000DE010E9498000E94C800089560E081E06E
:1001D0000E94500261E081E00E946E0240E855E218
:1001E00060E070E082E191E00E94190308950E94AE
:1001F000A1010E94E6000E94D900FDCF1F920F923C
:100200000FB60F9211242F938F939F93AF93BF93A9
:1002100080910A0190910B01A0910C01B0910D0108
:100220008050904CAF4FBF4F80930A0190930B01C9
:10023000A0930C01B0930D0127C080910A01909109
:100240000B01A0910C01B0910D0180589E43A0407C
:10025000B04080930A0190930B01A0930C01B093DE
:100260000D0180910E0190910F01A0911001B091AC
:1002700011010196A11DB11D80930E0190930F01F4
:10028000A0931001B093110180910A0190910B018C
:10029000A0910C01B0910D0181589E43A040B04047
:1002A00060F6BF91AF919F918F912F910F900FBEEC
:1002B0000F901F9018958FB7F89420910E013091F0
:1002C0000F0140911001509111018FBFB901CA0176
:1002D0000895EF92FF920F931F937B018C018FB7CC
:1002E000F89440910E0150910F01609110017091AE
:1002F00011018FBF2FB7F89480910E0190910F01DB
:10030000A0911001B09111012FBF841B950BA60B7A
:10031000B70B8E159F05A007B10760F31F910F91D2
:10032000FF90EF900895019759F0FC01EE0FFF1F29
:10033000EE0FFF1F32978FB7F8943197F1F78FBF09
:100340000895789484B5826084BD84B5816084BD4D
:1003500085B5826085BD85B5816085BDEEE6F0E03E
:10036000808181608083E1E8F0E080818260808329
:10037000808181608083E0E8F0E08081816080831B
:10038000E1EBF0E0808184608083E0EBF0E080814D
:1003900081608083EAE7F0E08081846080838081EF
:1003A0008260808380818160808380818068808397
:1003B0001092C10008958093020108958F7090916A
:1003C00002019295990F990F907C982B90937C0045
:1003D00080917A00806480937A0080917A0086FD13
:1003E000FCCF2091780040917900942F80E030E09C
:1003F000282B392BC90108951F93CF93DF93182F12
:10040000EB0161E00E945002E12FF0E0E156FF4F66
:100410008491833051F480918000806880938000C3
:10042000D0938900C093880037C0843051F4809104
:100430008000806280938000D0938B00C0938A00FC
:100440002BC0813029F484B5806884BDC7BD24C029
:10045000823029F484B5806284BDC8BD1DC0863059
:1004600041F48091B00080688093B000C093B300E5
:1004700013C0873041F48091B00080628093B00057
:10048000C093B40009C0C038D10514F460E001C0C5
:1004900061E0812F0E946E02DF91CF911F9108953C
:1004A000282F30E0C90185579F4FFC0194912958AE
:1004B0003F4FF9018491882381F0E82FF0E0E8595B
:1004C000FF4FE491F0E0662329F480819095892321
:1004D000808308958081892B80830895482F50E080
:1004E000CA0181569F4FFC012491CA0185579F4F35
:1004F000FC01949149585F4FFA0134913323C1F1C3
:10050000222331F1233021F4809180008F7705C0C0
:10051000243031F4809180008F7D8093800018C05A
:10052000213019F484B58F7704C0223021F484B5CA
:100530008F7D84BD0DC0263021F48091B0008F776F
:1005400005C0273029F48091B0008F7D8093B000E2
:10055000E32FF0E0E359FF4FE491F0E0662329F444
:10056000808190958923808308958081892B808361
:100570000895482F50E0CA0181569F4FFC012491F5
:10058000CA0185579F4FFC01949149585F4FFA016A
:100590003491332319F420E030E035C0222331F1C7
:1005A000233021F4809180008F7705C0243031F40E
:1005B000809180008F7D8093800018C0213019F4D5
:1005C00084B58F7704C0223021F484B58F7D84BD3B
:1005D0000DC0263021F48091B0008F7705C0273000
:1005E00029F48091B0008F7D8093B000E32FF0E07C
:1005F000EE58FF4FE491F0E0808120E030E0892365
:1006000011F021E030E0C901089587E091E0909376
:100610001301809312010895862F0E94E604089525
:100620000E941E0508950E94FF0408950E94EE0492
:100630000895CB01BA010E94AD040895DC01ED914B
:10064000FC910190F081E02D09950895DC01ED9178
:10065000FC910190F081E02D099508950F931F936F
:10066000CF93DF938C01EB0109C02196D801ED9166
:10067000FC910190F081E02DC80109956881662305
:10068000A1F7DF91CF911F910F9108950F931F93C1
:100690008C01DC01ED91FC910190F081E02D6DE089
:1006A0000995D801ED91FC910190F081E02D6AE06F
:1006B000C80109951F910F9108950F931F938C0105
:1006C000DC01ED91FC910190F081E02D0995C801CC
:1006D0000E9446031F910F9108950F931F938C0161
:1006E0000E942E03C8010E9446031F910F91089596
:1006F0000F931F938C01DC01ED91FC910190F0812F
:10070000E02D0995C8010E9446031F910F9108959D
:100710002F923F924F925F926F927F928F929F9211
:10072000AF92BF92CF92DF92EF92FF920F931F93FF
:10073000DF93CF93CDB7DEB7A0970FB6F894DEBFA7
:100740000FBECDBF1C016A017B014115510561053A
:10075000710549F4DC01ED91FC910190F081E02DEF
:1007600060E3099554C0882499245401422E5524ED
:100770006624772401E010E00C0F1D1F080D191DE1
:10078000C701B601A30192010E947705F8016083B9
:100790000894811C911CA11CB11CC701B601A301C6
:1007A00092010E947705C901DA016C017D01C11433
:1007B000D104E104F104F1F681E0E82EF12CEC0E15
:1007C000FD1EE80CF91C3E010894611C711CD5014A
:1007D000C4010197A109B1096C01C818D90814C056
:1007E000F601EE0DFF1D60816A3010F4605D01C0FE
:1007F000695CD101ED91FC910190F081E02DC10186
:1008000009950894E108F1086E147F0449F7A09651
:100810000FB6F894DEBF0FBECDBFCF91DF911F9111
:100820000F91FF90EF90DF90CF90BF90AF909F908F
:100830008F907F906F905F904F903F902F90089592
:100840002AE00E94880308950F931F938C010E9451
:100850002004C8010E9446031F910F910895AB0127
:1008600060E070E00E94200408950F931F938C01B4
:10087000AB0160E070E00E942004C8010E944603C2
:100880001F910F910895EF92FF920F931F93CF93B3
:10089000DF93EC017A018B0177FF0FC0E881F981CA
:1008A0000190F081E02D6DE2099510950095F0948E
:1008B000E094E11CF11C011D111D2AE0B801A70103
:1008C000CE010E948803DF91CF911F910F91FF907D
:1008D000EF9008950F931F938C010E944304C80169
:1008E0000E9446031F910F910895AB01662757FDA3
:1008F0006095762F0E94430408950F931F938C01F7
:10090000AB01662757FD6095762F0E944304C8010E
:100910000E9446031F910F910895DC0121153105B6
:1009200041F4ED91FC910190F081E02D642F099547
:1009300008952A30310519F40E94430408950E9455
:10094000880308950F931F938C010E948D04C801A2
:100950000E9446031F910F910895EF92FF920F930B
:100960001F937B018C0122E030E040E050E00E94C8
:100970009905205C3D4B404F5F4FCA01B901A8016A
:1009800097010E949905C901DA010197A109B109EE
:10099000292F3A2F4B2F552747FD5A950196A11D18
:1009A000B11D2093C50081508093C400E1ECF0E0BC
:1009B000808180618083808188608083808180687D
:1009C00080831F910F91FF90EF900895982F809151
:1009D000C00085FFFCCF9093C6000895809114015C
:1009E0009091150180589F4F209116013091170169
:1009F000821B930B60E870E00E94640508954091AB
:100A000016015091170180911401909115018417DE
:100A1000950719F42FEF3FEF0FC0FA01E85EFE4F84
:100A20002081CA01019660E870E00E9464059093FD
:100A300017018093160130E0C901089580911601D5
:100A400090911701909315018093140108951F92BE
:100A50000F920FB60F9211242F933F934F935F93F2
:100A60006F937F938F939F93AF93BF93EF93FF9376
:100A70004091C600E0911401F0911501CF0101965B
:100A800060E870E00E9464059C01809116019091DD
:100A900017012817390739F0E85EFE4F408330937D
:100AA000150120931401FF91EF91BF91AF919F9198
:100AB0008F917F916F915F914F913F912F910F9007
:100AC0000FBE0F901F90189597FB092E07260AD08E
:100AD00077FD04D049D006D000201AF470956195B6
:100AE0007F4F0895F6F7909581959F4F0895A1E265
:100AF0001A2EAA1BBB1BFD010DC0AA1FBB1FEE1F98
:100B0000FF1FA217B307E407F50720F0A21BB30BE2
:100B1000E40BF50B661F771F881F991F1A9469F75E
:100B200060957095809590959B01AC01BD01CF01BA
:100B3000089597FB092E05260ED057FD04D0D7DF68
:100B40000AD0001C38F450954095309521953F4FC0
:100B50004F4F5F4F0895F6F790958095709561958A
:100B60007F4F8F4F9F4F0895AA1BBB1B51E107C0BA
:100B7000AA1FBB1FA617B70710F0A61BB70B881F2D
:100B8000991F5A95A9F780959095BC01CD010895BC
:100B9000EE0FFF1F0590F491E02D0994F894FFCF1C
:0A0BA000010001000000000C03003A
:00000001FF
